:100000000C942A000C9434000C9434000C943400AA
:100010000C9434000C9434000C9434000C94340090
:100020000C9434000C9434000C9434000C94340080
:100030000C9434000C9434000C9434000C94340070
:100040000C9434000C9434000C9434000C94340060
:100050000C94340011241FBECFE5D4E0DEBFCDBF29
:100060000E9443000C9462000C94000080EA87BB5D
:1000700081E58DB90895779B04C08FB182BB83E081
:100080008FB981E008950F931F93DF93CF930F9261
:10009000CDB7DEB78FEF81BB12BA88E789830E94A4
:1000A00036008E010F5F1F4F8FE39DE0A3E081506C
:1000B0009040A040E1F700C00000C801B8010E94D4
:0800C0003B00F2CFF894FFCFE2
:00000001FF
