S0100000554152542D4C45442E73726563D6
S11300000C942A000C9434000C9434000C943400A6
S11300100C9434000C9434000C9434000C9434008C
S11300200C9434000C9434000C9434000C9434007C
S11300300C9434000C9434000C9434000C9434006C
S11300400C9434000C9434000C9434000C9434005C
S11300500C94340011241FBECFE5D8E0DEBFCDBF21
S11300600E9436000C945F000C9400008FEC90E02A
S11300700E94500081B38C6081BB0E945B0081367A
S113008019F0823629F008C082B38C6082BBF5CFA8
S113009082B3837F82BBF1CF85E40E945700EDCF0A
S11300A090BD89B988E18AB986E880BD08955D9BD1
S11300B0FECF8CB908955F9BFECF8CB10895F89460
S10500C0FFCF6C
S9030000FC
