S00B00004932432E737265635B
S11300000C942A000C943C000C943C000C943C008E
S11300100C943C000C943C000C943C000C943C006C
S11300200C943C000C943C000C943C000C94C900CF
S11300300C943C000C943C000C943C000C943C004C
S11300400C943C000C943C000C943C000C943C003C
S11300500C943C0011241FBECFE5D8E0DEBFCDBF19
S113006020E0A0E6B0E001C01D92A336B207E1F79C
S11300700E946D000C9438010C94000011B887E4C0
S113008080B984E086BF0895CF93C82F0E94B5003D
S113009080EA0E94AE008C2F0E94AE000E94B50040
S11300A081EA0E94AE0081E00E94A200C82F0E9453
S11300B0BB008C2FCF910895CF93C62F0E94B5001B
S11300C080EA0E94AE0080E00E94AE008C2F0E9465
S11300D0AE000E94BB00CF9108950E94BE000E9412
S11300E0EF000E943E008BE50E9408012FE78AE1A1
S11300F096E0215080409040E1F700C0000082E289
S11301000E9408012FE78AE196E021508040904048
S1130110E1F700C0000080E00E944400C82F84364C
S113012060F40E940801C33608F006C061E06C0F59
S113013080E00E945C00F9CFFFCF80E00E940801BC
S1130140C0E0F4CF811103C084EC86BF02C084E810
S113015086BF06B607FEFDCF83B1089583B984E850
S113016086BF06B607FEFDCF089584EA86BF06B6AD
S113017007FEFDCF089584E986BF089589B781609D
S113018089BF83B7816083BF83B78D7F83BF789432
S113019008951F920F920FB60F9211242F933F933D
S11301A04F935F936F937F938F939F93AF93BF937B
S11301B0EF93FF930E940B0183E682BFFF91EF91BF
S11301C0BF91AF919F918F917F916F915F914F916B
S11301D03F912F910F900FBE0F901F901895D49AB6
S11301E0D59A87B3806F87BB81E0809361000895BF
S11301F098B320E1629FB00111249F70692B68BB02
S1130200813019F4DD98DC9A0895DC98DD9A08951C
S113021080936200089580916100882341F1809168
S11302206000882379F0609162008DEC689F612DF5
S1130230112466956695669581E00E94F8001092F7
S113024060000895609162008DEC689F812D1124F7
S1130250869586958695880F982F990F990F890F03
S1130260681B80E00E94F80081E08093600008959C
S1070270F894FFCF2C
S9030000FC
